S019000053414D4432305F4932435F534C5F4D43552E7372656325
S11300004020002009060000050600000506000047
S113001000000000000000000000000000000000DC
S113002000000000000000000000000005060000C1
S113003000000000000000000506000005060000A6
S11300400506000005060000050600000506000080
S11300500506000005060000050600000506000070
S11300600506000005060000050600000506000060
S11300700506000005060000050600000506000050
S11300800506000005060000050600000506000040
S11300900506000005060000050600000506000030
S11300A00506000010B5064C2378002B07D1054B3C
S11300B0002B02D0044800E000BF0123237010BDD0
S11300C0040000200000000088070000084B10B561
S11300D0002B03D00749084800E000BF0748036825
S11300E0002B00D110BD064B002BFBD09847F9E73D
S11300F000000000080000208807000088070000B6
S11301000000000000B583B001AB80221A700A78A9
S11301105A704A789A708A78DA701900014B9847B5
S113012003B000BDA5050000F0B583B001AC012506
S113013065700027A770257021000E20064EB04779
S11301408022D201054B9A612770657021000F202F
S1130150B04703B0F0BDC0460501000000440041B3
S11301600C4B1B68002B06D1EFF31083002B07D038
S11301700022094B1A70074A136801331360704751
S113018072B6BFF35F8F0022044B1A700132024B28
S11301901A70F0E720000020240000200000002056
S11301A0084B1A68013A1A601B68002B09D1064BE8
S11301B01B78002B05D00122044B1A70BFF35F8F0C
S11301C062B67047200000202400002000000020B8
S11301D070B50C490B6A0478857840780122104088
S11301E080014026B34303432A40D2018020834345
S11301F013430322224012020348034013430B62B9
S113020070BDC04600080040FFFCFFFF072803D86C
S113021080001E4B1B589F46172036E01C4A136A69
S113022002210B43136200202FE0194A9369022133
S11302300B439361002028E0154A138A02210B43E3
S11302401382002021E0124A938A02210B439382F5
S113025000201AE00F4B1A6802210A431A601B6837
S11302600D4A13400A4A938411001022CB681A42A3
S1130270FCD0084A9168064BD962516899621268A9
S113028092B29A84002000E00020704748070000E2
S113029000080040280000207FFF000030B585B032
S11302A0C222D2001A4B9A601A4A53681E218B4309
S11302B0536001236A4613700024174DE0B2694667
S11302C0A84701341C2CF9D103A80024447001254B
S11302D085700470114B98470620114B9847114BB9
S11302E09847114B1C725C729C72DC7201956B46D0
S11302F05C7006236A4613701472547269460020B7
S11303000A4B984700200A4B984705B030BDC046B9
S11303100008004000400041E1040000D101000059
S11303200D020000350300000004004059030000E2
S113033011040000064A936908210B4393610122CA
S1130340044B1A7019000B781342FCD17047C04655
S113035000040040000C004070B5060004000D7855
S11303602D0205434B78002B02D08023DB021D4372
S11303704B7A002B02D080231B031D4348680128BD
S113038010D9431E184234D1022830D90223002246
S113039001325B009842FBD81202324314008023DE
S11303A05B031D430B7A002B02D080239B031D4368
S11303B0134A53785BB2002BFBDB124B9847124B6A
S11303C01E700F4A53785BB2002BFBDB0C4B9C6016
S11303D01A0053785BB2002BFBDB094A5368802177
S11303E049020B401D435560084B984770BD0022DD
S11303F0D2E70402344380239B021D43D2E7C04664
S1130400000C004061010000080C0040A101000044
S113041010B504000B4A53785BB2002BFBDB0A4B8C
S113042098470A4B1C70074A53785BB2002BFBDBDE
S1130430044A516880235B020B435360044B984782
S113044010BDC046000C004061010000040C0040D7
S1130450A101000010B50400064B9847064B1C7020
S1130460064A53888021C9010B435380044B9847A3
S113047010BDC04661010000020C0040000C0040A9
S1130480A101000010B504000F4B98470F4B1C70DE
S11304900F4A53881B05180F53880E490B4053808D
S11304A053880D490B40538011008022D2014B88A0
S11304B01342FCD106494A8803020648024013430A
S11304C04B80064B984710BD61010000020C0040B0
S11304D0000C0040FFF0FFFFFFBFFFFFA101000081
S11304E010B50C7824020443024B9847A4B2024B83
S11304F05C8010BD85040000000C004030B5D3784A
S1130500002B35D11378802B29D01B06802464025C
S1130510234354780225AC4306D19478002C20D18F
S11305208024A402234341605478013C012C1CD94B
S11305300D042D0CA024E4052C431C4384620D0CF3
S1130540D02424062C431C438462D478002C22D16A
S11305505B031CD59378012B1ED0416117E0002367
S1130560D7E7C024E4022343DDE70D4C2340DFE753
S113057041600C04240CA023DB05234383620C0C90
S1130580D0231B0623438362D378002B03D15378F3
S1130590013B012B02D930BD8161F8E78160FAE7A4
S11305A0FFFFFBFF10B50A00C1090023002904D195
S11305B04309DB0105498C4663441F242040012183
S11305C081401800024B984710BDC04600440041CA
S11305D0FD0400007047000010B5054B9847054B1B
S11305E09847054B9847054B9847054B984710BDCE
S11305F09D02000029010000D5050000D50500007A
S1130600D5050000FEE7000010B51A4A1A4B9A42BD
S113061011D01A00194B9A420DD2194A03339B1A6E
S11306209B0801339B000022134812498C588450C4
S113063004329A42FAD1134A134B9A420AD2D34350
S113064011495B1803218B4304339B18002102C218
S11306509342FCD10D4AFF210D4B8B4393600D4A0D
S113066053687F390B4353600B4B98470B4B9847A8
S1130670FEE7C046880700000000002004000020B8
S113068004000020040000203C00002000ED00E0F5
S1130690000000000040004101070000D1060000F6
S11306A000B583B0074A136A10210B43136201A9F2
S11306B000230B700F20044B98470F20034B9847DF
S11306C003B000BD00040040E10400005504000034
S11306D010B5084B9847084B9847084B80200002F8
S11306E08021C90100E099611A6A0242FBD1596173
S11306F0FAE7C046D9050000A10600000044004105
S113070070B500260C4D0D4C641BA410A64209D1F3
S1130710002600F029F80A4D0A4C641BA410A642D6
S113072005D170BDB300EB5898470136EEE7B3002E
S1130730EB5898470136F2E774070000740700008D
S11307407407000078070000380200001802000057
S113075018020000880200002A020000460200007D
S11307601C02000054020000F8B5C046F8BC08BCE6
S11307709E467047CD000000F8B5C046F8BC08BCE2
S10B07809E467047A50000002D
S10707880100000068
S9030609ED
